:100000000C945D000C9485000C9485000C94850084
:100010000C9485000C9485000C9485000C9485004C
:100020000C9485000C9485000C9485000C94AB0412
:100030000C9485000C9485000C9485000C9485002C
:100040000C9461040C9485000C942F040C94090406
:100050000C9485000C9485000C9485000C9485000C
:100060000C9485000C94850000000008000201003B
:100070000003040700000000000000000000000072
:10008000250028002B0000000000240027002A0083
:10009000040404040404040402020202020203032E
:1000A0000303030301020408102040800102040836
:1000B0001020010204081020820511241FBECFEF7A
:1000C000D8E0DEBFCDBF11E0A0E0B1E0E2E5FFE0A7
:1000D00002C005900D92AC34B107D9F722E0ACE430
:1000E000B1E001C01D92A532B207E1F710E0CDE505
:1000F000D0E004C02197FE010E94A107CC35D107B2
:10010000C9F70E94BA050C94A7070C940000CF937E
:10011000DF93DC018C918C3008F06DC0CB01FB01CA
:10012000EC55FF4F249180579F4FFC018491882309
:1001300099F090E0880F991FFC01EA57FF4FC59195
:10014000D491FC01E458FF4F859194918FB7F894B6
:10015000E881E22BE8838FBF8C91282F30E0F901F2
:10016000EE0FFF1FE20FF31FE55AFE4F962F9F730E
:100170006081607C692B608311961C9211971296A6
:100180001C9212972CE0622F0E949507829FB0016B
:10019000112430E020E0AB01420F531FFA01EE0FB3
:1001A000FF1FE40FF51FE55AFE4F908196FD16C024
:1001B0002F5F3F4F2C30310571F781110FC0109226
:1001C000800082E08093810010928500109284006C
:1001D000B19A80916F00826080936F00EC918E2FB6
:1001E00090E0FC01EE0FFF1FE80FF91FE55AFE4FEC
:1001F0008081806480838C91DF91CF910895AF924C
:10020000BF92CF92DF92EF92FF920F931F93CF9303
:10021000DF936C017B018B01040F151FEB015E0165
:10022000AE18BF08C017D10759F06991D601ED91FA
:10023000FC910190F081E02DC6010995892B79F799
:10024000C501DF91CF911F910F91FF90EF90DF904B
:10025000CF90BF90AF900895FC01538D448D252F12
:1002600030E0842F90E0821B930B541710F0CF9650
:10027000089501970895FC01918D828D981761F082
:10028000A28DAE0FBF2FB11D5D968C91928D9F5F99
:100290009F73928F90E008958FEF9FEF0895FC0178
:1002A000918D828D981731F0828DE80FF11D858D2B
:1002B00090E008958FEF9FEF08952FB7F894809105
:1002C000570190915801A0915901B0915A012FBF47
:1002D0008093870190938801A0938901B0938A014C
:1002E0008FE791E00E944F0197FF26C02FB7F89447
:1002F0008091570190915801A0915901B0915A01F4
:100300002FBF4091870150918801609189017091C0
:100310008A01841B950BA60BB70B4091830150916A
:100320008401609185017091860184179507A60765
:10033000B707B0F28FEF9FEF0895FC01918D228DEA
:10034000892F90E0805C9F4F821B91098F739927C2
:1003500008958FE791E00E949D0121E0892B09F427
:1003600020E0822F089580E090E0892B29F00E9400
:10037000A90181110C9400000895FC01A48DA80F1F
:10038000B92FB11DA35ABF4F2C91848D90E00196D7
:100390008F739927848FA689B7892C93A089B189F7
:1003A0008C91837080648C93938D848D981306C098
:1003B0000288F389E02D80818F7D80830895EF92FC
:1003C000FF920F931F93CF93DF93EC0181E0888F0F
:1003D0009B8D8C8D98131AC0E889F989808185FFDF
:1003E00015C09FB7F894EE89FF896083E889F98981
:1003F00080818370806480839FBF81E090E0DF9183
:10040000CF911F910F91FF90EF900895F62E0B8DD5
:1004100010E00F5F1F4F0F731127E02E8C8D8E1190
:100420000CC00FB607FCFACFE889F989808185FFF7
:10043000F5CFCE010E94BD01F1CFEB8DEC0FFD2F6A
:10044000F11DE35AFF4FF0829FB7F8940B8FEA89B2
:10045000FB8980818062CFCFCF93DF93EC01888DC1
:100460008823B9F0AA89BB89E889F9898C9185FD2F
:1004700003C0808186FD0DC00FB607FCF7CF8C91BD
:1004800085FFF2CF808185FFEDCFCE010E94BD01B7
:10049000E9CFDF91CF91089590E0FC01E859FF4F3B
:1004A0002491FC01EC55FF4F3491FC01E057FF4FC4
:1004B000E491EE23C9F0222339F0233001F1A8F4AE
:1004C000213019F1223029F1F0E0EE0FFF1FE4583E
:1004D000FF4FA591B4918FB7F894EC91611126C0AC
:1004E00030953E233C938FBF08952730A9F02830E4
:1004F000C9F0243049F7809180008F7D03C080913E
:1005000080008F7780938000DFCF84B58F7784BDA4
:10051000DBCF84B58F7DFBCF8091B0008F77809348
:10052000B000D2CF8091B0008F7DF9CF3E2BDACFD3
:100530003FB7F89480914F0190915001A0915101E3
:10054000B091520126B5A89B05C02F3F19F0019626
:10055000A11DB11D3FBFBA2FA92F982F8827BC011D
:10056000CD01620F711D811D911D42E0660F771F45
:10057000881F991F4A95D1F708958F929F92AF9245
:10058000BF92CF92DF92EF92FF924B015C010E94EB
:1005900098026B017C010E9498026C197D098E09FA
:1005A0009F09683E734081059105A8F321E0821AF6
:1005B0009108A108B10888EEC80E83E0D81EE11C9E
:1005C000F11C81149104A104B10429F7FF90EF906C
:1005D000DF90CF90BF90AF909F908F900895CF9273
:1005E000DF92EF92FF92CF93DF93EC01603282E0D3
:1005F0007807CCF5653B710514F064EB70E08981F8
:1006000028E830E0281B310987FD3395220F331F7E
:10061000220F331F6901330FEE08FF088A8128E596
:1006200032E0281B310987FD3395220F331F220F3B
:10063000331F032E000C440B550B2C193D094E099A
:100640005F09DB0177FF02C0B0E0A0E00E945C0719
:1006500024EB30E040E050E00E943207C20ED31E8F
:10066000E41EF51EB601E881EC3070F5298188E8BA
:1006700090E0821B910927FD9395880F991F880FA1
:10068000991F681779077CF02A8188E592E0821B20
:10069000910927FD9395880F991F880F991F681757
:1006A00079070CF4CB010297880F991F4FB7F89484
:1006B0002E2F30E0F901EE0FFF1FE20FF31FE55A76
:1006C000FE4F928381834FBFDF91CF91FF90EF90D8
:1006D000DF90CF900895FC0101900020E9F7319759
:1006E000AF01481B590BBC018FE791E00C94FF0050
:1006F0008F929F92AF92BF920F931F93CF93DF93EE
:10070000CDB7DEB7A1970FB6F894DEBF0FBECDBF51
:1007100019A2423008F44AE08E010F5D1F4F842E6B
:10072000912CB12CA12CA50194010E946407E62F05
:10073000B901CA01EA30F4F4E05DD801EE938D010D
:10074000232B242B252B79F790E080E0109719F0CC
:10075000CD010E946B03A1960FB6F894DEBF0FBEC9
:10076000CDBFDF91CF911F910F91BF90AF909F9020
:100770008F900895E95CE1CFCF93DF930E946B03E4
:10078000EC0182E191E00E946B038C0F9D1FDF91D1
:10079000CF9108950F931F93CF93DF938B01EA01BD
:1007A000BC0182E292E00E94EF0268EE73E080E01A
:1007B00090E00E94BD02B8018CE192E00E94EF023D
:1007C00068EE73E080E090E00E94BD02BE0182E22C
:1007D00092E00E94EF0285E191E0DF91CF911F91BD
:1007E0000F910C94BC0370E060E08CE192E00E94F9
:1007F000EF0270E060E082E292E00E94EF0270E0BF
:1008000060E08FE192E00E94EF0283E291E00C94BD
:10081000BC031F920F920FB60F9211242F933F9398
:100820004F935F936F937F938F939F93AF93BF93F8
:10083000EF93FF938FE791E00E94BD01FF91EF914D
:10084000BF91AF919F918F917F916F915F914F91E8
:100850003F912F910F900FBE0F901F9018951F92F0
:100860000F920FB60F9211242F938F939F93EF93B4
:10087000FF93E0918F01F09190018081E0919501CB
:10088000F091960182FD1BC09081809198018F5F4D
:100890008F7320919901821741F0E0919801F0E067
:1008A000E158FE4F958F80939801FF91EF919F91B2
:1008B0008F912F910F900FBE0F901F9018958081F0
:1008C000F4CF1F920F920FB60F9211242F933F93E4
:1008D0008F939F93AF93BF9380915701909158014D
:1008E000A0915901B0915A0130914E0123E0230F9C
:1008F0002D3758F50196A11DB11D20934E0180930F
:10090000570190935801A0935901B0935A018091D7
:100910004F0190915001A0915101B0915201019667
:10092000A11DB11D80934F0190935001A0935101DF
:10093000B0935201BF91AF919F918F913F912F91B1
:100940000F900FBE0F901F90189526E8230F029668
:10095000A11DB11DD2CF1F920F920FB60F9211247D
:100960002F933F934F935F936F937F938F939F93B7
:10097000AF93BF93CF93DF93EF93FF9380914C019D
:10098000C0914D01D0E087FF24C0109285001092E5
:10099000840080914C018F5F80934C0180914C01C9
:1009A000082E000C990B8C179D0724F480914C01A4
:1009B0008C30C4F18091840090918500049680343D
:1009C0009C4908F47AC08091840090918500049637
:1009D00076C080914C01082E000C990B8C179D0756
:1009E000C4F6E0914C018E2FEE0F990BFC01EE0F37
:1009F000FF1FE80FF91FE55AFE4F808186FFC9CF20
:100A0000E0914C018E2FEE0F990BFC01EE0FFF1FB2
:100A1000E80FF91FE55AFE4F808160E08F730E9456
:100A20004C02B7CF2091840030918500E0914C01B9
:100A30008E2FEE0F990BFC01EE0FFF1FE80FF91F31
:100A4000E55AFE4F81819281820F931F9093890016
:100A500080938800E0914C018E2FEE0F990BFC01E2
:100A6000EE0FFF1FE80FF91FE55AFE4F808186FF4A
:100A700011C0E0914C018E2FEE0F990BFC01EE0F8F
:100A8000FF1FE80FF91FE55AFE4F808161E08F7369
:100A90000E944C02FF91EF91DF91CF91BF91AF91F6
:100AA0009F918F917F916F915F914F913F912F9186
:100AB0000F900FBE0F901F90189580E49CE99093C3
:100AC0008900809388008FEF80934C01E3CFFC0175
:100AD00090914D019C3098F481E0890F80934D01F5
:100AE0009083892F90E0FC01EE0FFF1FE80FF91FA4
:100AF000E55AFE4F88EB9BE09283818308958FEF48
:100B000080830895EFE7F1E01382128288EE93E08C
:100B1000A0E0B0E084839583A683B78384E091E06E
:100B20009183808385EC90E09587848784EC90E0C6
:100B30009787868780EC90E0918B808B81EC90E0AA
:100B4000938B828B82EC90E0958B848B86EC90E08B
:100B5000978B868B118E128E138E148E82E292E00A
:100B60000E9467058FE192E00E9467058CE192E0A8
:100B70000C946705789484B5826084BD84B58160E7
:100B800084BD85B5826085BD85B5816085BD809158
:100B90006E00816080936E001092810080918100D0
:100BA00082608093810080918100816080938100C8
:100BB000809180008160809380008091B10084608A
:100BC0008093B1008091B00081608093B0008091EB
:100BD0007A00846080937A0080917A0082608093AA
:100BE0007A0080917A00816080937A0080917A0007
:100BF000806880937A001092C10069E070E082E220
:100C000092E00E9487006AE070E08FE192E00E942B
:100C100087006BE070E08CE192E00E948700E09139
:100C20008F01F091900182E08083E0918B01F0913F
:100C30008C011082E0918D01F0918E018FEC808308
:100C400010929701E0919301F091940186E08083E6
:100C5000E0919101F0919201808180618083E09127
:100C60009101F0919201808188608083E0919101EF
:100C7000F0919201808180688083E0919101F091F0
:100C8000920180818F7D80830E94F303C0E0D0E0D9
:100C90008FE791E00E949D0118161906CCF70E947B
:100CA0005D01FC0197FDDAC08D32910521F0C097FE
:100CB0000A9708F0CCC0C12CD12C760110E0E130AD
:100CC000F105D9F0ED32F10509F4C6C0CF01C097A6
:100CD0000A9798F4AAE0B0E0A70196010E94510794
:100CE0006F01FF0FEE08FF08C60ED71EE81EF91EA3
:100CF00080E3C81AD108E108F1088FE791E00E946B
:100D00003B010E945D01FC01C0970A97C0F2E130EF
:100D1000F105A9F2112341F0F094E094D094C0942D
:100D2000C11CD11CE11CF11CC114D10409F4B0CFC9
:100D300046010D2C000CAA08BB084AE0C501B4010D
:100D4000B7FE0DC06DE28FE791E00E94DF016627DC
:100D50007727CB01681979098A099B094AE00E9423
:100D6000780382E191E00E946B03D0925601C09219
:100D7000550182E391E00E94BC038091550190915E
:100D8000560197FD01969595879590935401809310
:100D9000530150E040E06AE570E084EB90E00E948F
:100DA000CA0360ED77E080E090E00E94BD02C09051
:100DB0005301D0905401B6018FE192E00E94EF02FE
:100DC0000D2C000CEE08FF084AE0C701B601F7FE43
:100DD0000DC06DE28FE791E00E94DF016627772763
:100DE000CB016C197D098E099F094AE00E947803A6
:100DF00082E191E00E946B038CE391E00E94BC03CE
:100E000060ED77E080E090E00E94BD0250E040E0BD
:100E100070E060E084EB90E00E94CA0368EE73E04B
:100E200080E090E00E94BD020E94F30360ED77E055
:100E300080E090E00E94BD02209709F429CF0E9433
:100E4000A901882309F424CF0E94000021CF8FE755
:100E500091E00E943B0123CF11E04FCFC12CD12C58
:100E6000760162CF052E97FB1EF400940E9449077D
:100E700057FD07D00E94640707FC03D04EF40C9482
:100E8000490750954095309521953F4F4F4F5F4F03
:100E9000089590958095709561957F4F8F4F9F4FE6
:100EA00008950E948607A59F900DB49F900DA49F62
:100EB000800D911D11240895B7FF0C9451070E94D5
:100EC0005107821B930B0895A1E21A2EAA1BBB1B8C
:100ED000FD010DC0AA1FBB1FEE1FFF1FA217B30706
:100EE000E407F50720F0A21BB30BE40BF50B661F1C
:100EF000771F881F991F1A9469F7609570958095E0
:100F000090959B01AC01BD01CF010895A29FB00156
:100F1000B39FC001A39F700D811D1124911DB29F2D
:100F2000700D811D1124911D0895991B79E004C055
:100F3000991F961708F0961B881F7A95C9F7809518
:100F40000895EE0FFF1F0590F491E02D0994F89499
:020F5000FFCFD1
:100F520000000000DF01FF002C012C029D013B017B
:100F62004F010D0A006E65787420706F73697469A1
:100F72006F6E00737461727420706F736974696F3D
:100F82006E00627265616B206F757400726F7461BE
:0C0F9200746520706F736974696F6E00E5
:00000001FF
